S012000055565F4C616D70426F782E7372656355
S11300000C9434000C9451000C9451000C94510045
S11300100C9451000C9451000C9451000C94510018
S11300200C9451000C9451000C9451000C94510008
S11300300C9451000C9451000C948D000C945100BC
S11300400C9451000C9451000C9451000C945100E8
S11300500C9451000C9451000C9451000C945100D8
S11300600C9451000C94510011241FBECFEFD8E022
S1130070DEBFCDBF11E0A0E0B1E0EEE6F8E002C0E3
S113008005900D92A230B107D9F721E0A2E0B1E0CA
S113009001C01D92A930B207E1F70E9405020C9439
S11300A035040C940000809106019091070100979B
S11300B031F0019790930701809306010895E2E0DF
S11300C0F1E08BE390E095838483828193810097B0
S11300D031F0019790930501809304010895E2E0C3
S11300E0F1E08BE390E09383828380819181009798
S11300F029F001979093030180930201089584B538
S1130100826084BD86E287BDEEE6F0E08081826095
S1130110808385B5846085BD08951F920F920FB6C4
S11301200F9211242F933F934F935F936F937F9379
S11301308F939F93AF93BF93CF93DF93EF93FF93EB
S113014080910001909101010196909301018093A7
S113015000018091000190910101843691050CF415
S1130160B5C081E090E0909301018093000198B1C3
S1130170892788B90E94530060E070E080EC90E029
S11301800E947901C2E0D1E028813981ADECBCEC58
S11301900E942604969587959695879596958795BA
S11301A061E070E0C0960E947901488159819A010A
S11301B0ADECBCEC0E9426049695879596958795A0
S11301C0969587959C01220F331F880F991F880FDE
S11301D0991F880F991F820F931F9A01281B390BAF
S11301E0C90161E070E0C0960E94790161E070E0AD
S11301F08AE390E00E9479012A813B81ADECBCEC5A
S11302000E94260496958795969587959695879549
S113021061E070E0C0960E9479014A815B819A0195
S1130220ADECBCEC0E94260496958795969587952F
S1130230969587959C01220F331F880F991F880F6D
S1130240991F880F991F820F931F9A01281B390B3E
S1130250C90161E070E0C0960E94790161E070E03C
S11302608AE390E00E9479012C813D81ADECBCECE5
S11302700E942604969587959695879596958795D9
S113028061E070E0C0960E9479014C815D819A0121
S1130290ADECBCEC0E9426049695879596958795BF
S11302A0969587959C01220F331F880F991F880FFD
S11302B0991F880F991F820F931F9A01281B390BCE
S11302C0C90161E070E0C0960E947901FF91EF914D
S11302D0DF91CF91BF91AF919F918F917F916F915A
S11302E05F914F913F912F910F900FBE0F901F90F0
S11302F018952BB1382F307F2F70232B2BB92BB1AE
S113030061702E7F262B2BB9599AE3ECF9E03197D3
S1130310F1F700C000002BB12C7F2BB92BB18295D3
S11303209295907F9827807F9827922F9F70892B92
S11303308BB98BB18E7F682B6BB9599A83EC99E09A
S11303400197F1F700C000008BB18C7F8BB9089541
S11303508FEF8AB960E070E088E390E00E94790151
S113036083EC99E00197F1F700C0000060E070E0D1
S113037088E390E00E94790183EC99E00197F1F71A
S113038000C0000060E070E088E390E00E94790122
S113039083EC99E00197F1F700C0000060E070E0A1
S11303A082E090E00E94790183EC99E00197F1F7F3
S11303B000C0000060E070E08CE090E00E947901F1
S11303C083EC99E00197F1F700C0000060E070E071
S11303D081E090E00E94790183EC99E00197F1F7C4
S11303E000C0000060E070E080E890E00E947901C5
S11303F083EC99E00197F1F700C0000060E070E041
S113040081E090E00E9479010895C2E0D1E0198270
S1130410188281E090E09B838A838BE090E09D8347
S11304208C830E947F00389A409A2FE739EA83E050
S1130430215030408040E1F700C000000E94A80134
S11304409FE729EA33E0915020403040E1F700C0B3
S1130450000061E070E089E490E00E94790161E0CD
S113046070E08EE690E00E94790161E070E089E638
S113047090E00E94790161E070E084E790E00E94DE
S1130480790161E070E089E690E00E94790161E021
S113049070E081E690E00E94790161E070E08CE612
S11304A090E00E94790161E070E089E690E00E94AA
S11304B0790161E070E08AE790E00E94790161E0EF
S11304C070E089E690E00E94790161E070E08EE6D8
S11304D090E00E94790161E070E087E690E00E947C
S11304E0790161E070E08EE290E00E94790161E0C0
S11304F070E08EE290E00E94790161E070E08EE2AB
S113050090E00E9479018FE39DE023E081509040C8
S11305102040E1F700C0000060E070E081E090E07E
S11305200E94790160E070E080E890E00E94790127
S113053061E070E083E590E00E94790161E070E0A1
S113054083E690E00E94790161E070E08FE690E03C
S11305500E94790161E070E082E790E00E947901F5
S113056061E070E080E790E00E94790161E070E072
S113057089E690E00E94790161E070E08FE690E006
S11305800E94790161E070E08EE690E00E947901BA
S113059061E070E089E490E00E94790161E070E03C
S11305A080E590E00E94790161E070E088E590E0E8
S11305B00E94790160E070E080EC90E00E94790193
S11305C061E070E085E590E00E94790161E070E00F
S11305D086E590E00E94790161E070E080E290E0BD
S11305E00E94790161E070E08CE490E00E9479015E
S11305F061E070E089E690E00E94790161E070E0DA
S113060087E690E00E94790161E070E088E690E07E
S11306100E94790161E070E084E790E00E94790132
S113062061E070E082E490E00E94790161E070E0B2
S11306308FE690E00E94790161E070E088E790E045
S11306400E94790161E070E080E290E00E9479010B
S113065061E070E086E790E00E94790161E070E07B
S113066081E390E00E94790161E070E08EE290E025
S11306700E94790161E070E080E390E00E947901DA
S11306803FEB8CE595E1315080409040E1F700C0AC
S1130690000060E070E081E090E00E94790160E099
S11306A070E080E890E00E94790161E070E084E508
S11306B090E00E94790161E070E089E690E00E9498
S11306C0790161E070E08DE690E00E94790161E0DB
S11306D070E085E690E00E94790161E070E08AE3D1
S11306E090E00E94790160E070E080EC90E00E946C
S11306F0790128813981ADECBCEC0E9426049695E1
S11307008795969587959695879561E070E0C09654
S11307100E947901488159819A01ADECBCEC0E9498
S113072026049695879596958795969587959C0129
S1130730220F331F880F991F880F991F880F991F45
S1130740820F931F9A01281B390BC90161E070E0E5
S1130750C0960E94790161E070E08AE390E00E9413
S113076079012A813B81ADECBCEC0E94260496956C
S11307708795969587959695879561E070E0C096E4
S11307800E9479014A815B819A01ADECBCEC0E9424
S113079026049695879596958795969587959C01B9
S11307A0220F331F880F991F880F991F880F991FD5
S11307B0820F931F9A01281B390BC90161E070E075
S11307C0C0960E94790161E070E08AE390E00E94A3
S11307D079012C813D81ADECBCEC0E9426049695F8
S11307E08795969587959695879561E070E0C09674
S11307F00E9479014C815D819A01ADECBCEC0E94B0
S113080026049695879596958795969587959C0148
S1130810220F331F880F991F880F991F880F991F64
S1130820820F931F9A01281B390BC90161E070E004
S1130830C0960E94790178943FE38DE093E03150B3
S113084080409040E1F700C00000FFCFA29FB001BC
S1130850B39FC001A39F700D811D1124911DB29FF0
S1110860700D811D1124911D0895F894FFCF91
S105086E010083
S9030000FC
