:100000000C9434000C9451000C9451000C94510049
:100010000C9451000C9451000C9451000C9451001C
:100020000C9451000C9451000C9451000C9451000C
:100030000C9451000C9451000C9487040C945100C2
:100040000C9451000C9451000C9451000C945100EC
:100050000C9451000C9451000C9451000C945100DC
:100060000C9451000C94510011241FBECFEFD8E026
:10007000DEBFCDBF11E0A0E0B1E0EAE9FDE002C0E3
:1000800005900D92AC37B107D9F721E0ACE7B1E0AC
:1000900001C01D92A938B207E1F70E9408060C942E
:1000A000CB060C94000087B1837C87B988B1837C30
:1000B00088B980918001887F877F8093800108952F
:1000C00096B1969596958091800190FB80F98093EA
:1000D000800180FF9AC081E090E090937F0180933F
:1000E0007E01809180018F7E8093800180917C01D0
:1000F00090917D0184309105E9F118F4039741F066
:1001000008958530910509F453C0069731F008959C
:100110008FEF9FEF0E941504089583E090E0909385
:100120007D0180937C0160E070E08DE090E00E94B2
:10013000F60460E070E081E090E00E94F60460E088
:1001400070E080E890E00E94F60484E091E00E9474
:100150008205E1E8F1E01182108213821282158299
:1001600014820E94A70560E070E080EC90E00E949D
:10017000F604089585E090E090937D0180937C01E2
:10018000419860E070E080E890E00E94F60460E052
:1001900070E08DE090E00E94F6048EE091E00E9415
:1001A000820560E070E087E890E00E94F604089520
:1001B00083E090E090937D0180937C0160E070E0AB
:1001C0008DE090E00E94F60460E070E081E090E055
:1001D0000E94F60460E070E080E890E00E94F6047F
:1001E00084E091E00E948205E1E8F1E01182108252
:1001F00013821282158214820E94A70560E070E0CB
:1002000080EC90E00E94F604089596B1969596953C
:1002100096958091800190FB81F98093800181FF08
:100220009AC082E090E090937F0180937E0180915C
:1002300080018F7E8093800180917C0190917D016F
:1002400084309105E9F118F4039741F00895853061
:10025000910509F453C0069731F0089581E090E0CC
:100260000E941504089583E090E090937D018093AF
:100270007C0160E070E08DE090E00E94F60460E0B8
:1002800070E081E090E00E94F60460E070E080E8B9
:1002900090E00E94F60484E091E00E948205E1E88B
:1002A000F1E01182108213821282158214820E9460
:1002B000A70560E070E080EC90E00E94F6040895ED
:1002C00085E090E090937D0180937C01419860E00F
:1002D00070E080E890E00E94F60460E070E08DE05D
:1002E00090E00E94F6048EE091E00E94820560E0BA
:1002F00070E087E890E00E94F604089583E090E0C3
:1003000090937D0180937C0160E070E08DE090E04F
:100310000E94F60460E070E081E090E00E94F60444
:1003200060E070E080E890E00E94F60484E091E0F4
:100330000E948205E1E8F1E01182108213821282AC
:10034000158214820E94A70560E070E080EC90E0C6
:100350000E94F604089596B192959F708091800155
:1003600090FB82F98093800182FF89C083E090E056
:1003700090937F0180937E01809180018F7E809396
:10038000800180917C0190917D0184309105E9F19B
:1003900018F4039741F008958530910509F453C08E
:1003A000069731F008958FEF9FEF0E943103089573
:1003B00083E090E090937D0180937C0160E070E0A9
:1003C0008DE090E00E94F60460E070E081E090E053
:1003D0000E94F60460E070E080E890E00E94F6047D
:1003E00084E091E00E948205E1E8F1E01182108250
:1003F00013821282158214820E94A70560E070E0C9
:1004000080EC90E00E94F604089585E090E09093DF
:100410007D0180937C01419860E070E080E890E08D
:100420000E94F60460E070E08DE090E00E94F60427
:100430008EE091E00E94820560E070E087E890E045
:100440000E94F604089560E070E080E890E00E9469
:10045000F6048AE191E00E948205109288011092D0
:10046000870160E070E08CE090E00E94F60484E098
:1004700090E090937D0180937C01419A089596B11C
:100480009295969597708091800190FB83F9809367
:10049000800183FF89C084E090E090937F01809386
:1004A0007E01809180018F7E8093800180917C010C
:1004B00090917D0184309105E9F118F4039741F0A2
:1004C00008958530910509F453C0069731F00895D9
:1004D00081E090E00E943103089583E090E09093E2
:1004E0007D0180937C0160E070E08DE090E00E94EF
:1004F000F60460E070E081E090E00E94F60460E0C5
:1005000070E080E890E00E94F60484E091E00E94B0
:100510008205E1E8F1E011821082138212821582D5
:1005200014820E94A70560E070E080EC90E00E94D9
:10053000F604089585E090E090937D0180937C011E
:10054000419860E070E080E890E00E94F60460E08E
:1005500070E08DE090E00E94F6048EE091E00E9451
:10056000820560E070E087E890E00E94F60408955C
:1005700060E070E080E890E00E94F6048AE191E09B
:100580000E948205109288011092870160E070E05D
:100590008CE090E00E94F60484E090E090937D016E
:1005A00080937C01419A089510927F0110927E0100
:1005B000089580918501909186011816190634F4EA
:1005C000019790938601809385010895892B39F5D1
:1005D0008091830190918401892B09F5809181019B
:1005E00090918201892BD9F4419886E090E0909314
:1005F0007D0180937C0160E070E081E090E00E94EA
:10060000F60489E291E00E94820560E070E080ECEF
:1006100090E00E94F60487E391E00E948205E1E801
:10062000F1E08BE390E095838483828193811816B7
:10063000190634F4019790938401809383010895FF
:10064000E1E8F1E08BE390E0938382838081918104
:10065000181619062CF4019790938201809381015A
:10066000089520918701309188012330310509F4E4
:1006700054C038F42115310589F02130310599F144
:10068000C7C02630310509F487C02730310509F489
:10069000A7C02430310509F0BBC064C0E1E8F1E037
:1006A0009C01220F331F880F991F880F991F880FF5
:1006B000991F820F931F20813181820F931F918395
:1006C0008083843691053CF083E690E0909382012C
:1006D000809381019DC099230CF09AC010928201F1
:1006E0001092810195C0E1E8F1E020813181820F13
:1006F000931F91838083843691053CF083E690E0DC
:10070000909382018093810183C099230CF080C073
:1007100010928201109281017BC0E1E8F1E09C011E
:10072000220F331F880F991F880F991F880F991F59
:10073000820F931F22813381820F931F93838283C1
:100740008C3391053CF08BE390E09093840180938F
:1007500083015EC099230CF05BC01092840110925B
:10076000830156C0E1E8F1E022813381820F931FBB
:1007700093838283843691053CF083E690E09093E6
:1007800084018093830144C099230CF041C01092EE
:100790008401109283013CC0E1E8F1E09C01220F4A
:1007A000331F880F991F880F991F880F991F820F79
:1007B000931F24813581820F931F958384838C330B
:1007C00091053CF08BE390E0909386018093850146
:1007D0001FC09923ECF4109286011092850118C075
:1007E000E1E8F1E024813581820F931F95838483B2
:1007F0008C3391053CF08BE390E0909386018093DD
:10080000850106C0992324F4109286011092850177
:100810000E94A705809187019091880160E070E0B7
:1008200080549F4F0E94F60408958F3F2FEF920748
:1008300019F00197C9F050C02091870130918801CB
:10084000C90101978230910541F08530910529F069
:1008500090938801809387013FC0225031093093E3
:1008600088012093870138C0809187019091880189
:100870009C012F5F3F4F2230310541F0253031057B
:1008800029F0309388012093870105C00296909348
:100890008801809387018091870190918801089752
:1008A000D8F060E070E080E890E00E94F60485E413
:1008B00091E00E948205109288011092870160E009
:1008C00070E08CE090E00E94F60484E090E0909369
:1008D0007D0180937C01419A0E94A7058091870148
:1008E0009091880160E070E080549F4F0E94F60470
:1008F000089584B5826084BD86E287BDEEE6F0E0AF
:1009000080818260808385B5846085BD08951F9253
:100910000F920FB60F9211242F933F934F935F9333
:100920006F937F938F939F93AF93BF93EF93FF93B7
:1009300080910201909103010196909303018093AD
:1009400002018091800184FF03C00E9460001EC0EC
:100950008091000190910101019690930101809393
:1009600000018091000190910101429778F081E0AF
:1009700090E090930101809300018091800180615B
:100980008093800110927F0110927E01809102017C
:100990009091030183369105C4F098B181E08927D5
:1009A00088B981E090E090930301809302018091E7
:1009B0007C0190917D01049721F40E94A7050E947B
:1009C000D90298B181E0892788B9FF91EF91BF9151
:1009D000AF919F918F917F916F915F914F913F91D7
:1009E0002F910F900FBE0F901F9018952BB1382F9D
:1009F000307F2F70232B2BB92BB161702E7F262BCC
:100A00002BB9599AE3EFF1E03197F1F700C00000FC
:100A10002BB12C7F2BB92BB182959295907F982783
:100A2000807F9827922F9F70892B8BB98BB18E7FF7
:100A3000682B6BB9599A83EF91E00197F1F700C0E9
:100A400000008BB18C7F8BB908958FEF8AB960E07D
:100A500070E088E390E00E94F60485ED96E001974F
:100A6000F1F700C0000060E070E088E390E00E94D1
:100A7000F60485ED96E00197F1F700C0000060E014
:100A800070E088E390E00E94F60485ED96E001971F
:100A9000F1F700C0000060E070E082E090E00E94AA
:100AA000F60485ED96E00197F1F700C0000060E0E4
:100AB00070E08CE090E00E94F60485ED96E00197EE
:100AC000F1F700C0000060E070E081E090E00E947B
:100AD000F60485ED96E00197F1F700C0000060E0B4
:100AE00070E080E890E00E94F60485ED96E00197C2
:100AF000F1F700C0000060E070E081E090E00E944B
:100B0000F6040895EF92FF920F931F93CF93DF9314
:100B10008C017C01C0E0D0E009C0F70181917F0128
:100B200061E070E090E00E94F6042196F8010190E7
:100B30000020E9F73197E01BF10BCE17DF0768F3D0
:100B4000DF91CF911F910F91FF90EF9008950F9338
:100B50001F93CF93DF9360E070E080EC90E00E9401
:100B6000F604C1E8D1E0888199810AE010E0B8017B
:100B70000E94A306CB0161E070E0C0960E94F604DB
:100B800088819981B8010E94A30661E070E0C09657
:100B90000E94F60461E070E08AE390E00E94F604AF
:100BA0008A819B81B8010E94A306CB0161E070E0BD
:100BB000C0960E94F6048A819B81B8010E94A30618
:100BC00061E070E0C0960E94F60461E070E08AE3A4
:100BD00090E00E94F6048C819D81B8010E94A306DA
:100BE000CB0161E070E0C0960E94F6048C819D818B
:100BF000B8010E94A30661E070E0C0960E94F6046E
:100C0000DF91CF911F910F910895399A41980895DE
:100C1000389A409A10927D0110927C0110927F01C7
:100C200010927E0180918001806180938001E1E8D3
:100C3000F1E01182108213821282158214821092C6
:100C40008801109287010E9405060E9453000E94AD
:100C500079042FE789EA93E0215080409040E1F742
:100C600000C000000E9425052FE789EA93E021508B
:100C700080409040E1F700C0000080E591E00E94D4
:100C800082052FE38DE093E0215080409040E1F712
:100C900000C0000060E070E081E090E00E94F60497
:100CA00081E090E090937D0180937C0160E070E0B2
:100CB00080E890E00E94F60480E691E00E948205C0
:100CC00060E070E080EC90E00E94F6048CE691E039
:100CD0000E9482052FE78AE196E0215080409040F3
:100CE000E1F700C00000409860E070E081E090E033
:100CF0000E94F60483E090E090937D0180937C0154
:100D000060E070E08DE090E00E94F60460E070E04A
:100D100080E890E00E94F60484E091E00E94820561
:100D20000E94A70560E070E080EC90E00E94F6046D
:100D30002FE38DE093E0215080409040E1F700C028
:100D400000007894FFCF97FB072E16F4009407D08D
:100D500077FD09D00E94B70607FC05D03EF49095B8
:100D600081959F4F0895709561957F4F0895AA1BB7
:100D7000BB1B51E107C0AA1FBB1FA617B70710F086
:100D8000A61BB70B881F991F5A95A9F780959095B8
:0A0D9000BC01CD010895F894FFCFD7
:100D9A00010001005345542054494D453A00504141
:100DAA0055534544202020202000574F524B494E8E
:100DBA00472E2E2E2020202000574F524B204649E6
:100DCA004E495348454400505245535320414E59C9
:100DDA00204B455900574F524B494E472E2E2E0055
:100DEA00496E697469616C697A696E672E2E2E0084
:100DFA0053636F7270696F6E495058005556204C94
:0C0E0A00616D70426F782076312E300050
:00000001FF
