S012000055565F4C616D70426F782E7372656355
S11300000C9434000C943E000C943E000C943E007E
S11300100C943E000C943E000C943E000C943E0064
S11300200C943E000C943E000C943E000C943E0054
S11300300C943E000C943E000C943E000C943E0044
S11300400C943E000C943E000C943E000C943E0034
S11300500C943E000C943E000C943E000C943E0024
S11300600C943E000C943E0011241FBECFEFD8E048
S1130070DEBFCDBF0E9440000C9449000C940000E8
S11300808FEF8AB98BB180788BB98BB180748BB9BF
S1090090FFCFF894FFCF3E
S9030000FC
