:100000000C9434000C9451000C9451000C94510049
:100010000C9451000C9451000C9451000C9451001C
:100020000C9451000C9451000C9451000C9451000C
:100030000C9451000C9451000C948D000C945100C0
:100040000C9451000C9451000C9451000C945100EC
:100050000C9451000C9451000C9451000C945100DC
:100060000C9451000C94510011241FBECFEFD8E026
:10007000DEBFCDBF11E0A0E0B1E0E4E6F5E002C0F4
:1000800005900D92A633B107D9F721E0A6E3B1E0C0
:1000900001C01D92AE33B207E1F70E942C020C940E
:1000A000B0020C94000080913C0190913D010097BA
:1000B00031F0019790933D0180933C010895E8E36E
:1000C000F1E08BE390E095838483828193810097B4
:1000D00031F0019790933B0180933A010895E8E352
:1000E000F1E08BE390E0938382838081918100979C
:1000F00029F001979093390180933801089584B5D0
:10010000826084BD86E287BDEEE6F0E08081826099
:10011000808385B5846085BD08951F920F920FB6C8
:100120000F9211242F933F934F935F936F937F937D
:100130008F939F93AF93BF93EF93FF9380910001B1
:1001400090910101019690930101809300018091AB
:10015000000190910101843691056CF081E090E0FE
:10016000909301018093000198B1892788B90E947A
:1001700053000E947D01FF91EF91BF91AF919F913C
:100180008F917F916F915F914F913F912F910F9040
:100190000FBE0F901F9018952BB1382F307F2F7006
:1001A000232B2BB92BB161702E7F262B2BB9599A9B
:1001B000E3ECF9E03197F1F700C000002BB12C7FA0
:1001C0002BB92BB182959295907F9827807F9827A5
:1001D000922F9F70892B8BB98BB18E7F682B6BB957
:1001E000599A83EC99E00197F1F700C000008BB1B8
:1001F0008C7F8BB908958FEF8AB960E070E088E357
:1002000090E00E94CC0083EC99E00197F1F700C0E8
:10021000000060E070E088E390E00E94CC0083EC96
:1002200099E00197F1F700C0000060E070E088E31A
:1002300090E00E94CC0083EC99E00197F1F700C0B8
:10024000000060E070E082E090E00E94CC0083EC6F
:1002500099E00197F1F700C0000060E070E08CE0E9
:1002600090E00E94CC0083EC99E00197F1F700C088
:10027000000060E070E081E090E00E94CC0083EC40
:1002800099E00197F1F700C0000060E070E080E8BD
:1002900090E00E94CC0083EC99E00197F1F700C058
:1002A000000060E070E081E090E00E94CC000895E2
:1002B000EF92FF920F931F93CF93DF938C017C01FA
:1002C000C0E0D0E009C0F70181917F0161E070E0FA
:1002D00090E00E94CC002196F80101900020E9F7FF
:1002E0003197E01BF10BCE17DF0768F3DF91CF9159
:1002F0001F910F91FF90EF900895CF93DF9360E0EF
:1003000070E080EC90E00E94CC00C8E3D1E028814E
:100310003981ADECBCEC0E94A1029695879596952B
:1003200087959695879561E070E0C0960E94CC0015
:10033000488159819A01ADECBCEC0E94A1029695CE
:10034000879596958795969587959C01220F331FE3
:10035000880F991F880F991F880F991F820F931F6D
:100360009A01281B390BC90161E070E0C0960E9418
:10037000CC0061E070E08AE390E00E94CC002A812A
:100380003B81ADECBCEC0E94A102969587959695B9
:1003900087959695879561E070E0C0960E94CC00A5
:1003A0004A815B819A01ADECBCEC0E94A10296955A
:1003B000879596958795969587959C01220F331F73
:1003C000880F991F880F991F880F991F820F931FFD
:1003D0009A01281B390BC90161E070E0C0960E94A8
:1003E000CC0061E070E08AE390E00E94CC002C81B8
:1003F0003D81ADECBCEC0E94A10296958795969547
:1004000087959695879561E070E0C0960E94CC0034
:100410004C815D819A01ADECBCEC0E94A1029695E5
:10042000879596958795969587959C01220F331F02
:10043000880F991F880F991F880F991F820F931F8C
:100440009A01281B390BC90161E070E0C0960E9437
:10045000CC00DF91CF9108951092370110923601B0
:10046000E8E3F1E01182108281E090E093838283DF
:100470008BE090E0958384830E947F00389A409AB5
:100480002FE789EA93E0215080409040E1F700C0D7
:1004900000000E94FB002FE789EA93E02150804092
:1004A0009040E1F700C0000082E091E00E94580116
:1004B0002FE38DE093E0215080409040E1F700C0B1
:1004C000000060E070E081E090E00E94CC0060E01D
:1004D00070E080E890E00E94CC0082E191E00E9410
:1004E000580160E070E080EC90E00E94CC008EE16A
:1004F00091E00E9458012FEB8CE595E1215080405E
:100500009040E1F700C0000060E070E081E090E022
:100510000E94CC0060E070E080E890E00E94CC0097
:100520008FE291E00E9458010E947D0178942FE3B0
:100530008DE093E0215080409040E1F700C0000042
:10054000FFCFA29FB001B39FC001A39F700D811D7B
:100550001124911DB29F700D811D1124911D0895CC
:04056000F894FFCF3D
:100564000100496E697469616C697A696E672E2E3F
:100574002E0053636F7270696F6E49505800555660
:10058400204C69676874426F782076312E300054AD
:06059400494D453A00004C
:00000001FF
