:100000000C9434000C9451000C9451000C94510049
:100010000C9451000C9451000C9451000C9451001C
:100020000C9451000C9451000C9451000C9451000C
:100030000C9451000C9451000C94E9000C94510064
:100040000C9451000C9451000C9451000C945100EC
:100050000C9451000C9451000C9451000C945100DC
:100060000C9451000C94510011241FBECFEFD8E026
:10007000DEBFCDBF11E0A0E0B1E0EAE5F6E002C0EE
:1000800005900D92A433B107D9F721E0A4E3B1E0C4
:1000900001C01D92AF33B207E1F70E949F020C949A
:1000A0002B030C94000087B1837C87B988B1837CD3
:1000B00088B980913801887F877F809338010895BF
:1000C00096B1969596958091380190FB80F9809332
:1000D000380180FF07C081E090E090933701809362
:1000E0003601089596B1969596959695809138012A
:1000F00090FB81F98093380181FF07C082E090E096
:100100009093370180933601089596B192959F7030
:100110008091380190FB82F98093380182FF07C0FB
:1001200083E090E09093370180933601089596B173
:100130009295969597708091380190FB83F9809302
:10014000380183FF07C084E090E0909337018093EB
:10015000360108951092370110923601089580916A
:100160003D0190913E01009731F0019790933E013F
:1001700080933D010895E9E3F1E08BE390E09583FE
:10018000848382819381009731F0019790933C01A1
:1001900080933B010895E9E3F1E08BE390E09383E2
:1001A000828380819181009729F0019790933A0191
:1001B00080933901089584B5826084BD86E287BD4D
:1001C000EEE6F0E080818260808385B5846085BD45
:1001D00008951F920F920FB60F9211242F933F9301
:1001E0004F935F936F937F938F939F93AF93BF933F
:1001F000EF93FF93809100019091010101969093FC
:1002000001018093000180910001909101018436E9
:10021000910564F081E090E09093010180930001EA
:100220000E94AF000E94D8010E946000FF91EF91F0
:10023000BF91AF919F918F917F916F915F914F91FE
:100240003F912F910F900FBE0F901F9018952BB1DB
:10025000382F307F2F70232B2BB92BB161702E7F5D
:10026000262B2BB9599AE3ECF9E03197F1F700C04E
:1002700000002BB12C7F2BB92BB182959295907FEA
:100280009827807F9827922F9F70892B8BB98BB1ED
:100290008E7F682B6BB9599A83EC99E00197F1F73F
:1002A00000C000008BB18C7F8BB908958FEF8AB9A5
:1002B00060E070E088E390E00E94270183EC99E021
:1002C0000197F1F700C0000060E070E088E390E083
:1002D0000E94270183EC99E00197F1F700C000002C
:1002E00060E070E088E390E00E94270183EC99E0F1
:1002F0000197F1F700C0000060E070E082E090E05C
:100300000E94270183EC99E00197F1F700C00000FB
:1003100060E070E08CE090E00E94270183EC99E0BF
:100320000197F1F700C0000060E070E081E090E02C
:100330000E94270183EC99E00197F1F700C00000CB
:1003400060E070E080E890E00E94270183EC99E093
:100350000197F1F700C0000060E070E081E090E0FC
:100360000E9427010895EF92FF920F931F93CF935E
:10037000DF938C017C01C0E0D0E009C0F7018191DE
:100380007F0161E070E090E00E9427012196F80172
:1003900001900020E9F73197E01BF10BCE17DF0742
:1003A00068F3DF91CF911F910F91FF90EF90089527
:1003B000CF93DF9360E070E080EC90E00E94270133
:1003C000C9E3D1E028813981ADECBCEC0E941C036B
:1003D00096958795969587959695879561E070E0B7
:1003E000C0960E942701488159819A01ADECBCEC6E
:1003F0000E941C0396958795969587959695879567
:100400009C01220F331F880F991F880F991F880F97
:10041000991F820F931F9A01281B390BC90161E0B4
:1004200070E0C0960E94270161E070E08AE390E0EE
:100430000E9427012A813B81ADECBCEC0E941C0389
:1004400096958795969587959695879561E070E046
:10045000C0960E9427014A815B819A01ADECBCECF9
:100460000E941C03969587959695879596958795F6
:100470009C01220F331F880F991F880F991F880F27
:10048000991F820F931F9A01281B390BC90161E044
:1004900070E0C0960E94270161E070E08AE390E07E
:1004A0000E9427012C813D81ADECBCEC0E941C0315
:1004B00096958795969587959695879561E070E0D6
:1004C000C0960E9427014C815D819A01ADECBCEC85
:1004D0000E941C0396958795969587959695879586
:1004E0009C01220F331F880F991F880F991F880FB7
:1004F000991F820F931F9A01281B390BC90161E0D4
:1005000070E0C0960E94270161E070E080E290E018
:100510000E94270161E070E082E490E00E942701E0
:10052000809136019091370161E070E0C0960E94A1
:100530002701DF91CF910895399A4198089510923B
:1005400035011092340181E090E09093370180935F
:100550003601E9E3F1E011821082938382838BE01C
:1005600090E0958384830E949C020E9453000E9425
:10057000DB00389A409A2FE789EA93E021508040C7
:100580009040E1F700C000000E9456012FE789EA81
:1005900093E0215080409040E1F700C0000082E0ED
:1005A00091E00E94B3012FE38DE093E02150804061
:1005B0009040E1F700C0000060E070E081E090E072
:1005C0000E94270160E070E080E890E00E9427012F
:1005D00082E191E00E94B30160E070E080EC90E085
:1005E0000E9427018EE191E00E94B3012FE78AE18A
:1005F00096E0215080409040E1F700C0000060E0AC
:1006000070E081E090E00E94270160E070E080E807
:1006100090E00E9427018EE291E00E94B3010E94C7
:10062000D80178942FE38DE093E0215080409040F2
:10063000E1F700C00000FFCFA29FB001B39FC0014F
:10064000A39F700D811D1124911DB29F700D811DFE
:0A0650001124911D0895F894FFCFC6
:10065A000100496E697469616C697A696E672E2E48
:10066A002E0053636F7270696F6E49505800555669
:10067A00204C616D70426F782076312E30005449DB
:04068A004D453A00A0
:00000001FF
