S012000055565F4C616D70426F782E7372656355
S11300000C9434000C9446000C9446000C94460066
S11300100C9446000C9446000C9446000C94460044
S11300200C9446000C9446000C9446000C94460034
S11300300C9446000C9446000C9456000C94460014
S11300400C9446000C9446000C9446000C94460014
S11300500C9446000C9446000C9446000C94460004
S11300600C9446000C94460011241FBECFEFD8E038
S1130070DEBFCDBF21E0A0E0B1E001C01D92A230FF
S1130080B207E1F70E9408010C943F020C940000AF
S113009084B5826084BD86E287BDEEE6F0E08081AF
S11300A08260808385B5846085BD08951F920F9218
S11300B00FB60F9211248F939F938091000190911A
S11300C00101019690930101809300018091000148
S11300D0909101018436910544F01092010110922F
S11300E0000198B181E0892788B99F918F910F9081
S11300F00FBE0F901F9018952BB1382F307F2F70A3
S1130100232B2BB92BB161702E7F262B2BB9599A37
S1130110E3ECF9E03197F1F700C000002BB12C7F3C
S11301202BB92BB182959295907F9827807F982741
S1130130922F9F70892B8BB98BB18E7F682B6BB9F3
S1130140599A83EC99E00197F1F700C000008BB154
S11301508C7F8BB908958FEF8AB960E070E088E3F3
S113016090E00E947C0083EC99E00197F1F700C0D5
S1130170000060E070E088E390E00E947C0083EC83
S113018099E00197F1F700C0000060E070E088E3B7
S113019090E00E947C0083EC99E00197F1F700C0A5
S11301A0000060E070E082E090E00E947C0083EC5C
S11301B099E00197F1F700C0000060E070E08CE086
S11301C090E00E947C0083EC99E00197F1F700C075
S11301D0000060E070E081E090E00E947C0083EC2D
S11301E099E00197F1F700C0000060E070E080E85A
S11301F090E00E947C0083EC99E00197F1F700C045
S1130200000060E070E081E090E00E947C000895CE
S11302100E944800389A409A8FE493EC0197F1F7D2
S113022000C000000E94AB009FE729EA83E09150E0
S113023020408040E1F700C0000061E070E089E404
S113024090E00E947C0061E070E08EE690E00E9405
S11302507C0061E070E089E690E00E947C0061E04F
S113026070E084E790E00E947C0061E070E089E641
S113027090E00E947C0061E070E081E690E00E94E2
S11302807C0061E070E08CE690E00E947C0061E01C
S113029070E089E690E00E947C0061E070E08AE70B
S11302A090E00E947C0061E070E089E690E00E94AA
S11302B07C0061E070E08EE690E00E947C0061E0EA
S11302C070E087E690E00E947C0061E070E08EE2DE
S11302D090E00E947C0061E070E08EE290E00E9479
S11302E07C0061E070E08EE290E00E947C007894F3
S11302F09FE32DE083E0915020408040E1F700C06F
S1130300000060E070E081E090E00E947C0060E02A
S113031070E080E890E00E947C0061E070E083E59A
S113032090E00E947C0061E070E083E690E00E942F
S11303307C0061E070E08FE690E00E947C0061E068
S113034070E082E790E00E947C0061E070E080E76A
S113035090E00E947C0061E070E089E690E00E94F9
S11303607C0061E070E08FE690E00E947C0061E038
S113037070E08EE690E00E947C0061E070E089E429
S113038090E00E947C0061E070E080E590E00E94D3
S11303907C0061E070E088E590E00E947C0060E011
S11303A070E080EC90E00E947C0061E070E085E504
S11303B090E00E947C0061E070E086E590E00E949D
S11303C07C0061E070E080E290E00E947C0061E0EB
S11303D070E08CE490E00E947C0061E070E089E6CB
S11303E090E00E947C0061E070E087E690E00E946B
S11303F07C0061E070E088E690E00E947C0061E0AF
S113040070E084E790E00E947C0061E070E082E4A8
S113041090E00E947C0061E070E08FE690E00E9432
S11304207C0061E070E088E790E00E947C0061E07D
S113043070E080E290E00E947C0061E070E086E77A
S113044090E00E947C0061E070E081E390E00E9413
S11304507C0061E070E08EE290E00E947C0061E04C
S113046070E080E390E00E947C009FE32DE083E055
S1130470915020408040E1F700C00000FFCFF89485
S1050480FFCFA8
S9030000FC
