S012000055565F4C616D70426F782E7372656355
S11300000C9434000C943E000C943E000C943E007E
S11300100C943E000C943E000C943E000C943E0064
S11300200C943E000C943E000C943E000C943E0054
S11300300C943E000C943E000C943E000C943E0044
S11300400C943E000C943E000C943E000C943E0034
S11300500C943E000C943E000C943E000C943E0024
S11300600C943E000C943E0011241FBECFEFD8E048
S1130070DEBFCDBF0E9440000C9450000C940000E1
S1130080389A409A91E02FE33DE083E021503040DC
S11300908040E1F700C0000088B1892788B9F3CF18
S10700A0F894FFCFFE
S9030000FC
