S012000055565F4C616D70426F782E7372656355
S11300000C9434000C943E000C943E000C943E007E
S11300100C943E000C943E000C943E000C943E0064
S11300200C943E000C943E000C943E000C943E0054
S11300300C943E000C943E000C943E000C943E0044
S11300400C943E000C943E000C943E000C943E0034
S11300500C943E000C943E000C943E000C943E0024
S11300600C943E000C943E0011241FBECFEFD8E048
S1130070DEBFCDBF0E94CC000C9489010C9400001B
S11300802BB1382F307F2F70232B2BB92BB16170FC
S11300902E7F262B2BB9599AE1EEF4E03197F1F734
S11300A000C000002BB12C7F2BB92BB18295929507
S11300B0907F9827807F9827922F9F70892B8BB9E8
S11300C08BB18E7F682B6BB9599A81EE94E00197BE
S11300D0F1F700C000008BB18C7F8BB908958FEFCE
S11300E08AB960E070E088E390E00E94400085EB0C
S11300F095E30197F1F700C0000060E070E088E349
S113010090E00E94400085EB95E30197F1F700C071
S1130110000060E070E088E390E00E94400085EB1E
S113012095E30197F1F700C0000060E070E082E021
S113013090E00E94400085EB95E30197F1F700C041
S1130140000060E070E08CE090E00E94400085EBED
S113015095E30197F1F700C0000060E070E081E0F2
S113016090E00E94400085EB95E30197F1F700C011
S1130170000060E070E080E890E00E94400085EBC1
S113018095E30197F1F700C0000060E070E081E0C2
S113019090E00E9440000895389A409A8FE493ECCE
S11301A00197F1F700C000000E946F008FE493EC08
S11301B00197F1F700C0000061E070E084E790E08F
S11301C00E94400061E070E085E690E00E944000FB
S11301D061E070E083E790E00E94400061E070E03D
S11301E084E790E00E94400061E070E080E290E0EB
S11301F00E94400061E070E084E790E00E944000CB
S113020061E070E085E690E00E94400061E070E00B
S113021083E790E00E94400061E070E084E790E0B2
S11302200E94400060E070E080E890E00E9440009E
S113023061E070E083E590E00E94400061E070E0DE
S113024083E690E00E94400061E070E08FE690E079
S11302500E94400061E070E082E790E00E9440006C
S113026061E070E080E790E00E94400061E070E0AF
S113027089E690E00E94400061E070E08FE690E043
S11302800E94400061E070E08EE690E00E94400031
S113029061E070E089E490E00E94400061E070E079
S11302A080E590E00E94400061E070E088E590E025
S11302B00E94400060E070E080EC90E00E9440000A
S11302C061E070E089E490E00E94400061E070E049
S11302D080E590E00E94400061E070E088E590E0F5
S11302E00E9440009FE32DE033E0915020403040D5
S11302F0E1F700C0000091E08FE926E831E0815089
S113030020403040E1F700C0000088B1892788B957
S1090310F3CFF894FFCFC7
S9030000FC
