:100000000C9434000C943E000C943E000C943E0082
:100010000C943E000C943E000C943E000C943E0068
:100020000C943E000C943E000C943E000C943E0058
:100030000C943E000C943E000C943E000C943E0048
:100040000C943E000C943E000C943E000C943E0038
:100050000C943E000C943E000C943E000C943E0028
:100060000C943E000C943E0011241FBECFEFD8E04C
:10007000DEBFCDBF0E94CC000C9416020C94000091
:100080002BB1382F307F2F70232B2BB92BB1617000
:100090002E7F262B2BB9599AE3ECF9E03197F1F733
:1000A00000C000002BB12C7F2BB92BB1829592950B
:1000B000907F9827807F9827922F9F70892B8BB9EC
:1000C0008BB18E7F682B6BB9599A83EC99E00197BD
:1000D000F1F700C000008BB18C7F8BB908958FEFD2
:1000E0008AB960E070E088E390E00E94400083EC11
:1000F00099E00197F1F700C0000060E070E088E34C
:1001000090E00E94400083EC99E00197F1F700C075
:10011000000060E070E088E390E00E94400083EC23
:1001200099E00197F1F700C0000060E070E082E024
:1001300090E00E94400083EC99E00197F1F700C045
:10014000000060E070E08CE090E00E94400083ECF2
:1001500099E00197F1F700C0000060E070E081E0F5
:1001600090E00E94400083EC99E00197F1F700C015
:10017000000060E070E080E890E00E94400083ECC6
:1001800099E00197F1F700C0000060E070E081E0C5
:1001900090E00E9440000895389A409A8FE493ECD2
:1001A0000197F1F700C000000E946F009FE7E9EAA5
:1001B000F3E09150E040F040E1F700C0000061E062
:1001C00070E089E490E00E94400061E070E08EE61B
:1001D00090E00E94400061E070E089E690E00E94BB
:1001E000400061E070E084E790E00E94400061E040
:1001F00070E089E690E00E94400061E070E081E6F6
:1002000090E00E94400061E070E08CE690E00E9487
:10021000400061E070E089E690E00E94400061E00B
:1002200070E08AE790E00E94400061E070E089E6BB
:1002300090E00E94400061E070E08EE690E00E9455
:10024000400061E070E087E690E00E94400061E0DD
:1002500070E08EE290E00E94400061E070E08EE28B
:1002600090E00E94400061E070E08EE290E00E9429
:1002700040002FE33DE083E0215030408040E1F733
:1002800000C0000060E070E081E090E00E9440006B
:1002900060E070E080E890E00E94400061E070E083
:1002A00083E590E00E94400061E070E083E690E02A
:1002B0000E94400061E070E08FE690E00E94400004
:1002C00061E070E082E790E00E94400061E070E051
:1002D00080E790E00E94400061E070E089E690E0F5
:1002E0000E94400061E070E08FE690E00E944000D4
:1002F00061E070E08EE690E00E94400061E070E016
:1003000089E490E00E94400061E070E080E590E0C8
:100310000E94400061E070E088E590E00E944000AB
:1003200060E070E080EC90E00E94400061E070E0EE
:1003300085E590E00E94400061E070E086E590E095
:100340000E94400061E070E080E290E00E94400086
:1003500061E070E08CE490E00E94400061E070E0B9
:1003600089E690E00E94400061E070E087E690E05E
:100370000E94400061E070E088E690E00E9440004A
:1003800061E070E084E790E00E94400061E070E08E
:1003900082E490E00E94400061E070E08FE690E02F
:1003A0000E94400061E070E088E790E00E94400019
:1003B00061E070E080E290E00E94400061E070E067
:1003C00086E790E00E94400061E070E081E390E009
:1003D0000E94400061E070E08EE290E00E944000E8
:1003E00061E070E080E390E00E9440009FE3EDE078
:1003F000F3E09150E040F040E1F700C0000091E0F0
:10040000E7EAF1E63197F1F700C0000088B18927EB
:1004100088B9FFE322E43FE0F15020403040E1F7AB
:1004200000C0000088B1892788B9EACFF894FFCFCF
:00000001FF
